:020000040800F2
:1000000038070020CD0100081B0500081305000873
:10001000170500087D020008FB070008000000002B
:10002000000000000000000000000000C5050008FE
:100030008102000800000000A1050008B1060008C8
:10004000E7010008E7010008E7010008E7010008F0
:10005000E7010008E7010008E7010008E7010008E0
:10006000A1020008E7010008E7010008E701000815
:10007000E7010008E7010008E7010008E7010008C0
:10008000E7010008E7010008E7010008E7010008B0
:10009000E7010008E7010008E7010008E7010008A0
:1000A000E7010008E7010008E7010008E701000890
:1000B000E7010008E7010008E7010008E701000880
:1000C000E7010008E7010008E7010008E701000870
:1000D000E701000815070008E7010008E70100082C
:1000E000E7010008E7010008E7010008E701000850
:1000F000E7010008E7010008E7010008E701000840
:10010000E7010008E7010008E7010008E70100082F
:10011000E7010008E7010008E7010008E70100081F
:10012000E7010008E7010008E7010008E70100080F
:1001300000F002F800F03AF80AA090E8000C8244BF
:100140008344AAF10107DA4501D100F02FF8AFF29C
:10015000090EBAE80F0013F0010F18BFFB1A43F0A5
:10016000010318475007000070070000103A24BF31
:1001700078C878C1FAD8520724BF30C830C144BF0C
:1001800004680C607047000000230024002500264E
:10019000103A28BF78C1FBD8520728BF30C148BFEA
:1001A0000B6070471FB51FBD10B510BD00F033F8D0
:1001B0001146FFF7F7FF00F06DFB00F051F803B4B4
:1001C000FFF7F2FF03BC00F01AFB0000094880476C
:1001D00009480047FEE7FEE7FEE7FEE7FEE7FEE729
:1001E000FEE7FEE7FEE7FEE704480549054A064B41
:1001F00070470000B50600083101000838010020F2
:10020000380700203803002038030020704770476B
:10021000704770477047754600F02CF8AE460500F1
:100220006946534620F00700854618B020B5FFF711
:10023000DBFFBDE820404FF000064FF000074FF015
:1002400000084FF0000B21F00701AC46ACE8C009F4
:10025000ACE8C009ACE8C009ACE8C0098D467047FD
:1002600010B50446AFF300802046BDE81040FFF70C
:10027000A6BF000000487047D400002000BFFEE782
:10028000704707E04FF4966100BF0A1EA1F1010319
:1002900099B2FAD1021EA0F1010398B2F2D17047CF
:1002A00010B50A2000F0AEFA0748006838B90748D0
:1002B000006808B9012000E000200449086004201B
:1002C00000F006F810BD000008812142A40121427F
:1002D00001490860704700001404014000212349CF
:1002E0008279002A3AD00A46126803689A430B467C
:1002F0001A600A1D126803689A430B1D1A6002797E
:1003000011440A6803681A430A60184A08321268DE
:1003100003689A43154B08331A601A1D1268036864
:100320009A43124B0C331A604279102A0ED11A1FCD
:10033000126803681A430D4B08331A601A1D1268BD
:1003400003681A43094B0C331A600DE007494279E0
:1003500011440A6803681A430A6005E002791144EF
:100360000A6803689A430A6070470000000401406D
:100370000EB50121084600F015F90221012000F018
:100380001DF80420009000208DF804000C208DF84A
:10039000050001208DF806006846FFF79FFF082042
:1003A0008DF8080001208DF80B008DF8090002205F
:1003B0008DF80A0002A800F0B1F80EBD30B5002299
:1003C0008B071C0F0F2303FA04F20B4B8C1053F80E
:1003D00024309343084C8D1044F8253023468C106C
:1003E00053F824308C07240F00FA04F42343024C02
:1003F0008D1044F8253030BD080001402DE9F04152
:10040000024600250026002000230024002791F842
:1004100003C00CF00F0591F803C00CF0100CBCF1F8
:10042000000F03D091F802C04CEA050591F800C016
:10043000BCF1000F31D0146800202BE04FF0010C0C
:100440000CFA00F3B1F800C00CEA03069E4220D17A
:1004500083004FF00F0C0CFA03F7BC4305FA03FCC2
:100460004CEA040491F803C0BCF1280F06D14FF008
:10047000010C0CFA00FCC2F814C00AE091F803C0A9
:10048000BCF1480F05D14FF0010C0CFA00FCC2F88A
:1004900010C0401C0828D1D31460B1F800C0BCF1D2
:1004A000FF0F34DD546800202EE000F1080C4FF0FF
:1004B000010808FA0CF3B1F800C00CEA03069E42EA
:1004C00021D183004FF00F0C0CFA03F7BC4305FA5F
:1004D00003FC4CEA040491F803C0BCF1280F05D1D9
:1004E00000F1080C08FA0CF8C2F8148091F803C067
:1004F000BCF1480F07D100F1080C4FF0010808FAD1
:100500000CF8C2F81080401C0828CED35460BDE817
:10051000F08100BFFEE700BFFEE7704770B5002125
:1005200000230F22C47804B3154C246804F4E0645B
:10053000C4F5E064210AC1F10403CA40447804FA16
:1005400003F184781440214309010E4C0678A1552B
:10055000047804F01F050124AC4005786D11AD004E
:1005600005F1E025C5F8004109E0047804F01F0515
:100570000124AC40044D0678761145F8264070BD44
:100580000CED00E000E400E080E100E002490143FE
:10059000024A1160704700000000FA050CED00E00F
:1005A0007047000029B1064A92690243044B9A61E0
:1005B00004E0034A92698243014B9A61704700004C
:1005C00000100240704710B500F002F810BD0000A6
:1005D0000CB50020019000903348006840F4803052
:1005E0003149086000BF3048006800F400300090D6
:1005F0000198401C0190009818B90198B0F5A06FBF
:10060000F1D12948006800F4003010B101200090B9
:1006100001E0002000900098012843D123480068A1
:1006200040F01000214908600846006820F00300EF
:1006300008600846006840F0020008601A484068F8
:10064000194948600846406848600846406840F4D8
:10065000806048600846406820F47C104860084686
:10066000406840F4E81048600846006840F0807038
:10067000086000BF0C48006800F000700028F9D046
:100680000948406820F00300074948600846406870
:1006900040F00200486000BF0348406800F00C00D2
:1006A0000828F9D10CBD00000010024000200240D3
:1006B0007047000010B51348006840F00100114970
:1006C000086008464068104908400E4948600846DE
:1006D00000680E4908400B4908600846006820F48D
:1006E000802008600846406820F4FE0048604FF40F
:1006F0001F008860FFF767FF4FF000600449086043
:1007000010BD0000001002400000FFF8FFFFF6FEE1
:1007100008ED00E010B540F225511D4800F03EF80C
:1007200010B31B4800F064F8C4B21A48008800F403
:100730000040C8B91748008800F4804060B10A2C16
:1007400003D000201349088020E01248008840F4BC
:1007500000401049088019E00D2C06D10D48008892
:1007600040F480400B49088010E00A480088C0F33C
:100770000D0009490C5407480088401C05490880B1
:1007800008460088C72801DD0020088010BD000051
:1007900000380140080000200C00002070B502461F
:1007A000002400230025002040F66A16B14200D143
:1007B00000BFC1F3421501F01F03012606FA03F33F
:1007C000012D02D19689334006E0022D02D1168A0E
:1007D000334001E0968A33400C12012606FA04F4F5
:1007E0001688344013B10CB1012000E0002070BD28
:1007F00001468888C0F30800704700BFFEE7014645
:1008000000BF70470146114A12884A434FF0E02367
:100810005A6100229A611A46126942F001021A6175
:1008200000BF4FF0E022106900F001021AB100F49D
:100830008032002AF5D04FF0E022126922F0010246
:100840004FF0E0231A6100229A61704702000020F5
:1008500008B501210C20FFF7A5FE4FF40070ADF89C
:10086000000010208DF8030003208DF80200694677
:100870000648FFF7C3FD0420ADF8000048208DF8BE
:10088000030069460248FFF7B9FD08BD00080140B2
:10089000000C0140FFF7DCFF4FF4A060FFF776FE8D
:1008A000FFF766FDFFF7FCFC02E0C820FFF7E9FC5C
:1008B000FBE70000D4080008000000200C00000046
:1008C0006C010008E00800080C0000202C07000064
:1008D0008801000800000000000000000000000087
:04000005080001CD21
:00000001FF
